{
  "_format": "hh-sol-artifact-1",
  "contractName": "Token",
  "sourceName": "contracts/Token.sol",
  "abi": [
    {
      "inputs": [],
      "stateMutability": "nonpayable",
      "type": "constructor"
    },
    {
      "anonymous": false,
      "inputs": [
        {
          "indexed": true,
          "internalType": "address",
          "name": "previousOwner",
          "type": "address"
        },
        {
          "indexed": true,
          "internalType": "address",
          "name": "newOwner",
          "type": "address"
        }
      ],
      "name": "OwnershipTransferred",
      "type": "event"
    },
    {
      "inputs": [
        {
          "internalType": "address",
          "name": "_tokenAddress",
          "type": "address"
        }
      ],
      "name": "addToken",
      "outputs": [],
      "stateMutability": "nonpayable",
      "type": "function"
    },
    {
      "inputs": [],
      "name": "contractOwner",
      "outputs": [
        {
          "internalType": "address",
          "name": "",
          "type": "address"
        }
      ],
      "stateMutability": "view",
      "type": "function"
    },
    {
      "inputs": [
        {
          "internalType": "address",
          "name": "_tokenAddress",
          "type": "address"
        },
        {
          "internalType": "uint256",
          "name": "_amount",
          "type": "uint256"
        }
      ],
      "name": "deposit",
      "outputs": [],
      "stateMutability": "payable",
      "type": "function"
    },
    {
      "inputs": [],
      "name": "owner",
      "outputs": [
        {
          "internalType": "address",
          "name": "",
          "type": "address"
        }
      ],
      "stateMutability": "view",
      "type": "function"
    },
    {
      "inputs": [],
      "name": "renounceOwnership",
      "outputs": [],
      "stateMutability": "nonpayable",
      "type": "function"
    },
    {
      "inputs": [
        {
          "internalType": "address",
          "name": "",
          "type": "address"
        }
      ],
      "name": "supportTokens",
      "outputs": [
        {
          "internalType": "bool",
          "name": "",
          "type": "bool"
        }
      ],
      "stateMutability": "view",
      "type": "function"
    },
    {
      "inputs": [
        {
          "internalType": "address",
          "name": "newOwner",
          "type": "address"
        }
      ],
      "name": "transferOwnership",
      "outputs": [],
      "stateMutability": "nonpayable",
      "type": "function"
    },
    {
      "inputs": [
        {
          "internalType": "address",
          "name": "",
          "type": "address"
        },
        {
          "internalType": "address",
          "name": "",
          "type": "address"
        }
      ],
      "name": "userTokenBalance",
      "outputs": [
        {
          "internalType": "uint256",
          "name": "",
          "type": "uint256"
        }
      ],
      "stateMutability": "view",
      "type": "function"
    },
    {
      "inputs": [
        {
          "internalType": "address",
          "name": "_tokenAddress",
          "type": "address"
        },
        {
          "internalType": "uint256",
          "name": "_amount",
          "type": "uint256"
        }
      ],
      "name": "withdraw",
      "outputs": [],
      "stateMutability": "payable",
      "type": "function"
    }
  ],
  "bytecode": "0x608060405234801561001057600080fd5b5061002d61002261003260201b60201c565b61003a60201b60201c565b6100fe565b600033905090565b60008060009054906101000a900473ffffffffffffffffffffffffffffffffffffffff169050816000806101000a81548173ffffffffffffffffffffffffffffffffffffffff021916908373ffffffffffffffffffffffffffffffffffffffff1602179055508173ffffffffffffffffffffffffffffffffffffffff168173ffffffffffffffffffffffffffffffffffffffff167f8be0079c531659141344cd1fd0a4f28419497f9722a3daafe3b4186f6b6457e060405160405180910390a35050565b6112c48061010d6000396000f3fe6080604052600436106100865760003560e01c8063b47064c811610059578063b47064c814610126578063ce606ee014610163578063d48bfca71461018e578063f2fde38b146101b7578063f3fef3a3146101e057610086565b806347e7ef241461008b578063715018a6146100a75780638a0737a0146100be5780638da5cb5b146100fb575b600080fd5b6100a560048036038101906100a09190610d00565b6101fc565b005b3480156100b357600080fd5b506100bc610503565b005b3480156100ca57600080fd5b506100e560048036038101906100e09190610c9b565b61058b565b6040516100f29190610f17565b60405180910390f35b34801561010757600080fd5b506101106105ab565b60405161011d9190610e9c565b60405180910390f35b34801561013257600080fd5b5061014d60048036038101906101489190610cc4565b6105d4565b60405161015a9190610ff2565b60405180910390f35b34801561016f57600080fd5b506101786105f9565b6040516101859190610e9c565b60405180910390f35b34801561019a57600080fd5b506101b560048036038101906101b09190610c9b565b61061f565b005b3480156101c357600080fd5b506101de60048036038101906101d99190610c9b565b6106f5565b005b6101fa60048036038101906101f59190610d00565b6107ed565b005b600160008373ffffffffffffffffffffffffffffffffffffffff1673ffffffffffffffffffffffffffffffffffffffff16815260200190815260200160002060009054906101000a900460ff16610288576040517f08c379a000000000000000000000000000000000000000000000000000000000815260040161027f90610f92565b60405180910390fd5b600073ffffffffffffffffffffffffffffffffffffffff168273ffffffffffffffffffffffffffffffffffffffff161415610397578034146102ff576040517f08c379a00000000000000000000000000000000000000000000000000000000081526004016102f690610f72565b60405180910390fd5b34600360003373ffffffffffffffffffffffffffffffffffffffff1673ffffffffffffffffffffffffffffffffffffffff16815260200190815260200160002060008473ffffffffffffffffffffffffffffffffffffffff1673ffffffffffffffffffffffffffffffffffffffff168152602001908152602001600020600082825461038b9190611029565b925050819055506104ff565b80600360003373ffffffffffffffffffffffffffffffffffffffff1673ffffffffffffffffffffffffffffffffffffffff16815260200190815260200160002060008473ffffffffffffffffffffffffffffffffffffffff1673ffffffffffffffffffffffffffffffffffffffff16815260200190815260200160002060008282546104239190611029565b9250508190555060008273ffffffffffffffffffffffffffffffffffffffff166323b872dd3330856040518463ffffffff1660e01b815260040161046993929190610eb7565b602060405180830381600087803b15801561048357600080fd5b505af1158015610497573d6000803e3d6000fd5b505050506040513d601f19601f820116820180604052508101906104bb9190610d3c565b9050806104fd576040517f08c379a00000000000000000000000000000000000000000000000000000000081526004016104f490610f52565b60405180910390fd5b505b5050565b61050b610b90565b73ffffffffffffffffffffffffffffffffffffffff166105296105ab565b73ffffffffffffffffffffffffffffffffffffffff161461057f576040517f08c379a000000000000000000000000000000000000000000000000000000000815260040161057690610fd2565b60405180910390fd5b6105896000610b98565b565b60016020528060005260406000206000915054906101000a900460ff1681565b60008060009054906101000a900473ffffffffffffffffffffffffffffffffffffffff16905090565b6003602052816000526040600020602052806000526040600020600091509150505481565b600260009054906101000a900473ffffffffffffffffffffffffffffffffffffffff1681565b610627610b90565b73ffffffffffffffffffffffffffffffffffffffff166106456105ab565b73ffffffffffffffffffffffffffffffffffffffff161461069b576040517f08c379a000000000000000000000000000000000000000000000000000000000815260040161069290610fd2565b60405180910390fd5b60018060008373ffffffffffffffffffffffffffffffffffffffff1673ffffffffffffffffffffffffffffffffffffffff16815260200190815260200160002060006101000a81548160ff02191690831515021790555050565b6106fd610b90565b73ffffffffffffffffffffffffffffffffffffffff1661071b6105ab565b73ffffffffffffffffffffffffffffffffffffffff1614610771576040517f08c379a000000000000000000000000000000000000000000000000000000000815260040161076890610fd2565b60405180910390fd5b600073ffffffffffffffffffffffffffffffffffffffff168173ffffffffffffffffffffffffffffffffffffffff1614156107e1576040517f08c379a00000000000000000000000000000000000000000000000000000000081526004016107d890610f32565b60405180910390fd5b6107ea81610b98565b50565b80600360003373ffffffffffffffffffffffffffffffffffffffff1673ffffffffffffffffffffffffffffffffffffffff16815260200190815260200160002060008473ffffffffffffffffffffffffffffffffffffffff1673ffffffffffffffffffffffffffffffffffffffff1681526020019081526020016000205410156108ac576040517f08c379a00000000000000000000000000000000000000000000000000000000081526004016108a390610fb2565b60405180910390fd5b600073ffffffffffffffffffffffffffffffffffffffff168273ffffffffffffffffffffffffffffffffffffffff161415610a265780600360003373ffffffffffffffffffffffffffffffffffffffff1673ffffffffffffffffffffffffffffffffffffffff16815260200190815260200160002060008473ffffffffffffffffffffffffffffffffffffffff1673ffffffffffffffffffffffffffffffffffffffff168152602001908152602001600020600082825461096d919061107f565b9250508190555060003373ffffffffffffffffffffffffffffffffffffffff168260405161099a90610e87565b60006040518083038185875af1925050503d80600081146109d7576040519150601f19603f3d011682016040523d82523d6000602084013e6109dc565b606091505b5050905080610a20576040517f08c379a0000000000000000000000000000000000000000000000000000000008152600401610a1790610f52565b60405180910390fd5b50610b8c565b80600360003373ffffffffffffffffffffffffffffffffffffffff1673ffffffffffffffffffffffffffffffffffffffff16815260200190815260200160002060008473ffffffffffffffffffffffffffffffffffffffff1673ffffffffffffffffffffffffffffffffffffffff1681526020019081526020016000206000828254610ab2919061107f565b9250508190555060008273ffffffffffffffffffffffffffffffffffffffff1663a9059cbb33846040518363ffffffff1660e01b8152600401610af6929190610eee565b602060405180830381600087803b158015610b1057600080fd5b505af1158015610b24573d6000803e3d6000fd5b505050506040513d601f19601f82011682018060405250810190610b489190610d3c565b905080610b8a576040517f08c379a0000000000000000000000000000000000000000000000000000000008152600401610b8190610f52565b60405180910390fd5b505b5050565b600033905090565b60008060009054906101000a900473ffffffffffffffffffffffffffffffffffffffff169050816000806101000a81548173ffffffffffffffffffffffffffffffffffffffff021916908373ffffffffffffffffffffffffffffffffffffffff1602179055508173ffffffffffffffffffffffffffffffffffffffff168173ffffffffffffffffffffffffffffffffffffffff167f8be0079c531659141344cd1fd0a4f28419497f9722a3daafe3b4186f6b6457e060405160405180910390a35050565b600081359050610c6b81611249565b92915050565b600081519050610c8081611260565b92915050565b600081359050610c9581611277565b92915050565b600060208284031215610cad57600080fd5b6000610cbb84828501610c5c565b91505092915050565b60008060408385031215610cd757600080fd5b6000610ce585828601610c5c565b9250506020610cf685828601610c5c565b9150509250929050565b60008060408385031215610d1357600080fd5b6000610d2185828601610c5c565b9250506020610d3285828601610c86565b9150509250929050565b600060208284031215610d4e57600080fd5b6000610d5c84828501610c71565b91505092915050565b610d6e816110b3565b82525050565b610d7d816110c5565b82525050565b6000610d90602683611018565b9150610d9b8261112a565b604082019050919050565b6000610db3600f83611018565b9150610dbe82611179565b602082019050919050565b6000610dd6600a83611018565b9150610de1826111a2565b602082019050919050565b6000610df9601b83611018565b9150610e04826111cb565b602082019050919050565b6000610e1c601383611018565b9150610e27826111f4565b602082019050919050565b6000610e3f602083611018565b9150610e4a8261121d565b602082019050919050565b6000610e6260008361100d565b9150610e6d82611246565b600082019050919050565b610e81816110f1565b82525050565b6000610e9282610e55565b9150819050919050565b6000602082019050610eb16000830184610d65565b92915050565b6000606082019050610ecc6000830186610d65565b610ed96020830185610d65565b610ee66040830184610e78565b949350505050565b6000604082019050610f036000830185610d65565b610f106020830184610e78565b9392505050565b6000602082019050610f2c6000830184610d74565b92915050565b60006020820190508181036000830152610f4b81610d83565b9050919050565b60006020820190508181036000830152610f6b81610da6565b9050919050565b60006020820190508181036000830152610f8b81610dc9565b9050919050565b60006020820190508181036000830152610fab81610dec565b9050919050565b60006020820190508181036000830152610fcb81610e0f565b9050919050565b60006020820190508181036000830152610feb81610e32565b9050919050565b60006020820190506110076000830184610e78565b92915050565b600081905092915050565b600082825260208201905092915050565b6000611034826110f1565b915061103f836110f1565b9250827fffffffffffffffffffffffffffffffffffffffffffffffffffffffffffffffff03821115611074576110736110fb565b5b828201905092915050565b600061108a826110f1565b9150611095836110f1565b9250828210156110a8576110a76110fb565b5b828203905092915050565b60006110be826110d1565b9050919050565b60008115159050919050565b600073ffffffffffffffffffffffffffffffffffffffff82169050919050565b6000819050919050565b7f4e487b7100000000000000000000000000000000000000000000000000000000600052601160045260246000fd5b7f4f776e61626c653a206e6577206f776e657220697320746865207a65726f206160008201527f6464726573730000000000000000000000000000000000000000000000000000602082015250565b7f5472616e73666572206661696c65640000000000000000000000000000000000600082015250565b7f6e6f7420656e6f75676800000000000000000000000000000000000000000000600082015250565b7f5468697320746f6b656e206973206e6f7420737570706f727465640000000000600082015250565b7f4e6f7420656e6f756768742062616c616e636500000000000000000000000000600082015250565b7f4f776e61626c653a2063616c6c6572206973206e6f7420746865206f776e6572600082015250565b50565b611252816110b3565b811461125d57600080fd5b50565b611269816110c5565b811461127457600080fd5b50565b611280816110f1565b811461128b57600080fd5b5056fea2646970667358221220ba075d162df8cbe396de72be7498fae636bcb612b5b453ac31f34088549d27bf64736f6c63430008040033",
  "linkReferences": {},
  "deployedLinkReferences": {}
}